:1000000002072EE50924FE605C1470030200AE14A2
:1000100070030200F714700302013E147003020122
:1000200082240560030201C67F85120988E547B472
:100030000111053EE53ED394634003E4F53EE4F54B
:10004000478016E54860030201C6153EE53EC394AD
:10005000005003753E63E4F548AD3E7F0512082E5F
:100060007F850201C37F88120988E547B4011B051B
:100070003FE53FD3940C4003753F01E4F547AD3FA6
:100080007F0812082E7F880201C3E54864016003DF
:100090000201C6153FE53FC394005003753F0CE4D1
:1000A000F548AD3F7F0812082E7F880201C37F8B81
:1000B000120988E547B4011B0540E540D3941E4072
:1000C00003754001E4F547AD407F0B12082E7F8B8E
:1000D0000201C3E548640160030201C61540E54022
:1000E000C39400500375401EE4F548AD407F0B12E9
:1000F000082E7F8B0201C3120986E547B4011B0558
:1001000041E541D394174003E4F541E4F547AD419F
:100110007F4212082E7FC20201C3E54864016003DA
:100120000201C61541E541C394005003754117E42F
:10013000F548AD417F4212082E7FC20201C37FC540
:10014000120988E547B4011A0542E542D3943B40C1
:1001500003E4F542E4F547AD427F4512082E7FC522
:100160008061E5486401705E1542E542C394005029
:100170000375423BE4F548AD427F4512082E7FC52A
:1001800080417FC8120988E547B4011A0543E54359
:10019000D3943B4003E4F543E4F547AD437F481275
:1001A000082E7FC8801DE548B4011B1543E543C3F5
:1001B0009400500375433BE4F548AD437F48120873
:1001C0002E7FC812098DE54964017059AF431208AA
:1001D00060AD027F80120869AF42120860AD027FF5
:1001E00082120869AF41120860AD027F841208696B
:1001F000AF40120860AD027F86120869AF3F120857
:1002000060AD027F88120869AF3E120860AD027FC0
:100210008C1208697F0C12098DE4F5497508017F7D
:100220000AFE1208FA2275080112093A1209A47886
:100230003E7C007D007B007A0079327E007F0612D2
:100240000556120374E5086401706E7F811209750A
:100250001209958F317F831209751209958F307FAE
:10026000851209751209958F2F7F8712097512095A
:10027000958F2E7F891209751209958F2D7F8D120A
:1002800009751209958F2C7F0C12098DAD317F48AD
:1002900012082EAD307F4512082EAD2F7F42120876
:1002A0002EAD2E7F0B12082EAD2D7F0812082EAD1D
:1002B0002C7F0512082E02033EE5086402702878A0
:1002C0003E7C00FDFB7A007938FE7F0312055678EC
:1002D000417C007D007B007A0079327E007F06122F
:1002E000055612057C8057E50864037028783E7C2B
:1002F00000FDFB7A00793BFE7F0312055678417CB6
:10030000007D007B007A0079327E007F0612055660
:100310001206558029783E7C007D007B007A0079AA
:100320002C7E007F0612055678447C007D007B0001
:100330007A0079327E007F06120556120003E52C02
:10034000B5380DB5390AB53A077F067E001207FAAF
:10035000E52C653B600302022FE52C653C6003023F
:10036000022FE52C653D600302022F7F06FE120975
:100370005802022F20901F7F057E001208FA20905D
:10038000153090FDE4F5087540010509E509D394A1
:1003900006400375090120941F7F057E001208FAAC
:1003A0002094153094FD750802753E01052AE52A52
:1003B000D394034003752A0120951F7F057E001208
:1003C00008FA2095153095FD750803753F01052B3A
:1003D000E52BD394034003752B01E53E6401703394
:1003E00020910F7F0AFE1208FA2091063091FD75C8
:1003F000410120920C1208F62092063092FD7542BF
:100400000120930F1208F62093093093FDE4F53E86
:10041000754301E53F6401703320910F7F0AFE129E
:1004200008FA2091063091FD75410120920C1208C6
:10043000F62092063092FD75420120930F1208F6C5
:100440002093093093FDE4F53E754301E5406401D6
:10045000703320910F7F0AFE1208FA209106309126
:10046000FD75410120920C1208F62092063092FD93
:1004700075420120930F1208F62093093093FDE492
:10048000F54075430122E709F608DFFA8046E709DF
:10049000F208DFFA803E88828C83E709F0A3DFFA56
:1004A0008032E309F608DFFA8078E309F208DFFA20
:1004B000807088828C83E309F0A3DFFA80648982EC
:1004C0008A83E0A3F608DFFA805889828A83E0A352
:1004D000F208DFFA804C80D280FA80C680D480692E
:1004E00080F28033801080A680EA809A80A880DA2B
:1004F00080E280CA803389828A83ECFAE493A3C8BD
:10050000C582C8CCC583CCF0A3C8C582C8CCC5837E
:10051000CCDFE9DEE7800D89828A83E493A3F608C5
:10052000DFF9ECFAA9F0EDFB2289828A83ECFAE08C
:10053000A3C8C582C8CCC583CCF0A3C8C582C8CC2B
:10054000C583CCDFEADEE880DB89828A83E493A37B
:10055000F208DFF980CC88F0EF60010E4E60C388AE
:10056000F0ED2402B4040050B9F582EB2402B40487
:100570000050AF23234582239004D673E52A24FE3E
:10058000604A14700302061024026003020654122B
:100590000986E544B40111053EE53ED394174003B6
:1005A000E4F53EE4F5448018E54564016003020685
:1005B00054153EE53EC394005003753E17E4F545DF
:1005C000AD3E7F4212082E7FC20206517FC512093E
:1005D00088E544B4011A053FE53FD3943B4003E46A
:1005E000F53FE4F544AD3F7F4512082E7FC580619D
:1005F000E5456401705E153FE53FC3940050037507
:100600003F3BE4F545AD3F7F4512082E7FC5804155
:100610007FC8120988E544B4011A0540E540D39427
:100620003B4003E4F540E4F544AD407F4812082E1A
:100630007FC8801DE545B4011B1540E540C394000B
:10064000500375403BE4F545AD407F4812082E7FCE
:10065000C812098D22E52B24FE604A14700302069D
:10066000E92402600302072D120986E544B4011152
:10067000053EE53ED394174003E4F53EE4F544809F
:1006800018E5456401600302072D153EE53EC3945D
:10069000005003753E17E4F545AD3E7F4212082E2B
:1006A0007FC202072A7FC5120988E544B4011A05F2
:1006B0003FE53FD3943B4003E4F53FE4F544AD3FD1
:1006C0007F4512082E7FC58061E5456401705E1587
:1006D0003FE53FC394005003753F3BE4F545AD3F14
:1006E0007F4512082E7FC580417FC8120988E544E6
:1006F000B4011A0540E540D3943B4003E4F540E4DF
:10070000F544AD407F4812082E7FC8801DE545B4F2
:10071000011B1540E540C39400500375403BE4F5D0
:1007200045AD407F4812082E7FC812098D22787F80
:10073000E4F6D8FD75814B020775020226E493A307
:10074000F8E493A34003F68001F208DFF48029E483
:1007500093A3F85407240CC8C333C4540F4420C8CF
:10076000834004F456800146F6DFE4800B01020466
:100770000810204080900887E47E019360BCA3FFAE
:10078000543F30E509541FFEE493A360010ECF549B
:10079000C025E060A840B8E493A3FAE493A3F8E48A
:1007A00093A3C8C582C8CAC583CAF0A3C8C582C8F6
:1007B000CAC583CADFE9DEE780BEE4F529740A25ED
:1007C00029F8E6FF1209BD7F057E001208FA052907
:1007D000E529C3940A40E67FC212098DE4F5297425
:1007E000152529F8E6FF1209BD7F057E001208FADB
:1007F0000529E529C3940840E622AB07AA06900024
:1008000000B2B07FD07E071208FAA3E582640145EA
:100810008370EEE4F583F582C3E5829BE5839A500D
:100820000CB2B07FF47E011208FAA380EB22ED75C2
:10083000F00A842430F54BE433F54AED75F00A8470
:10084000E5F02430FDE433FCEF2480FF12098DAF86
:100850004B1209BDAF051209BD7F057E000208FAE3
:10086000120995AA07E4FD7F8EAB05AD07C2A0C2B1
:10087000A1D2A07F021209B2AF051208ADAF0312D8
:1008800008ADD2A1C2A0220B0A323032302D303155
:100890002D303100091530303A30303A3030000B0D
:1008A0001E303132333435363738390000AD07C2A7
:1008B000A17F021209B2E4FC7F021209B2ED5401D9
:1008C000F54AD2A11209B2C2A1EDC313FD0CBC08B6
:1008D000E7227F021209B2E4FCEDC313FD30A2034C
:1008E000430580D2A17F021209B2C2A11209B20C43
:1008F000BC08E6AF05227F0A7E00D3EF9400EE9499
:100900000040147D6E7C00ED1D70011CED4C70F7F5
:10091000EF1F70E61E80E322120927C2A5120927E5
:100920008F80120927D2A7758901758CFF758AF609
:10093000D28C308DFDC28CC28D22C2A77F381209A5
:100940008D7F0C12098D7F0612098D7F0112098D92
:100950007F8312098D0207BAAB07AA06900000C375
:10096000E5829BE5839A500CB2B07FB87E0B1208EB
:10097000FAA380EB22C2A0C2A1D2A01208AD120835
:10098000D2D2A1C2A0227FC212098D7F0FC2A612AD
:100990000918C2A722EFC4540F75F00AA4FEEF5441
:1009A0000F2EFF22C2A0C2A1120865E4FD7F8002C3
:1009B0000869E4FEEEC39F50030E80F822D2A6120F
:0709C0000918C2A702092774
:00000001FF
